:10000000D0C30000F6C30000F4C30000F2C3000038
:10001000F0C30000EEC30000ECC30000EAC3000020
:10002000E8C30000E6C300000C94AB0C0C94640B16
:10003000E0C30000DEC30000DCC30000DAC3000040
:10004000D8C300000C94E211D4C30000D2C3000056
:10005000D0C30000CEC30000CCC300000C94540DEC
:10006000C8C30000C6C30000C4C30000C2C3000070
:10007000C0C30000BEC30000BCC30000BAC3000080
:100080000C945512B6C30000B4C30000B2C3000004
:10009000B0C30000AEC30000ACC30000AAC30000A0
:1000A000A8C30000A6C30000A4C30000AF13B4138C
:1000B000B913C313CD13171417141714D713E1135F
:1000C000EB13F513021417140A1437143A142914F5
:1000D0002D1433145B145B145B143E144214461449
:1000E0004C1450145B1456140600FF0901A10119A9
:1000F000012940150026FF0075089520810019018F
:1001000029409100C012010002000000403014504C
:100110000108250102030141637469766973696FFF
:100120006E00537079726F20506F7274616C0004AE
:1001300003090400000000003E5B4F5B3E3E6B4F36
:100140006B3E1C3E7C3E1C183C7E3C181C577D5769
:100150001C1C5E7F5E1C00183C1800FFE7C3E7FF15
:100160000018241800FFE7DBE7FF30483A060E26A8
:1001700029792926407F050507407F05253F5A3C00
:10018000E73C5A7F3E1C1C08081C1C3E7F14227F43
:1001900022145F5F005F5F06097F017F006689951B
:1001A0006A606060606094A2FFA29408047E040804
:1001B00010207E201008082A1C08081C2A08081E87
:1001C000101010100C1E0C1E0C30383E3830060E6D
:1001D0003E0E06000000000000005F000000070067
:1001E0000700147F147F14242A7F2A122313086423
:1001F0006236495620500008070300001C224100C7
:100200000041221C002A1C7F1C2A08083E08080006
:1002100080703000080808080800006060002010A6
:100220000804023E5149453E00427F400072494960
:1002300049462141494D331814127F102745454541
:10024000393C4A4949314121110907364949493662
:10025000464949291E0000140000004034000000F7
:100260000814224114141414140041221408020129
:100270005909063E415D594E7C1211127C7F494955
:1002800049363E414141227F4141413E7F494949F2
:10029000417F090909013E414151737F0808087FE8
:1002A00000417F41002040413F017F081422417FEF
:1002B000404040407F021C027F7F0408107F3E4187
:1002C00041413E7F090909063E4151215E7F0919DE
:1002D0002946264949493203017F01033F404040F6
:1002E0003F1F2040201F3F4038403F6314081463E5
:1002F00003047804036159494D43007F41414102A1
:1003000004081020004141417F04020102044040E2
:10031000404040000307080020545478407F2844A0
:1003200044383844444428384444287F385454548A
:100330001800087E090218A4A49C787F0804047899
:1003400000447D40002040403D007F1028440000D4
:10035000417F40007C047804787C080404783844A9
:10036000444438FC1824241818242418FC7C08045D
:100370000408485454542404043F44243C4040207E
:100380007C1C2040201C3C4030403C442810284429
:100390004C9090907C4464544C44000836410000DA
:1003A00000770000004136080002010204023C26EA
:1003B00023263C1EA1A161123A4040207A385454B1
:1003C0005559215555794121545478412155547836
:1003D0004020545579400C1E5272123955555559CA
:1003E000395454545939555454580000457C4100EF
:1003F00002457D420001457C40F0292429F0F02887
:100400002528F07C545545002054547C547C0A091E
:100410007F4932494949323248484832324A48488D
:10042000303A4141217A3A42402078009DA0A07D97
:1004300039444444393D4040403D3C24FF24244855
:100440007E4943662B2FFC2F2BFF0929F620C088FD
:100450007E090320545479410000447D41304848CE
:100460004A32384040227A007A0A0A727D0D1931E8
:100470007D2629292F28262929292630484D402044
:10048000380808080808080808382F10C8ACBA2F20
:10049000102834FA00007B000008142A14222214C9
:1004A0002A14089500220095AA005500AAAA55AA68
:1004B00055AA000000FF00101010FF00141414FFD4
:1004C000001010FF00FF1010F010F0141414FC00C6
:1004D0001414F700FF0000FF00FF1414F404FC14D0
:1004E0001417101F10101F101F1414141F001010C9
:1004F00010F0000000001F101010101F101010103E
:10050000F010000000FF101010101010101010FF5D
:1005100010000000FF140000FF00FF00001F101774
:100520000000FC04F414141710171414F404F4005D
:1005300000FF00F714141414141414F700F7141423
:1005400014171410101F101F141414F4141010F0AA
:1005500010F000001F101F0000001F14000000FC1E
:10056000140000F010F01010FF10FF141414FF140A
:100570001010101F00000000F010FFFFFFFFFFF041
:10058000F0F0F0F0FFFFFF0000000000FFFF0F0F92
:100590000F0F0F38444438447C2A2A3E147E02024E
:1005A0000606027E027E0263554941633844443C9C
:1005B00004407E201E2006027E020299A5E7A5992E
:1005C0001C2A492A1C4C7201724C304A4D4D303065
:1005D00048784830BC625A463D3E494949007E0150
:1005E00001017E2A2A2A2A2A44445F444440514A6F
:1005F000444040444A51400000FF0103E080FF00B6
:100600000008086B6B083612362436060F090F06F1
:10061000000018180000001010003040FF01010019
:100620001F01011E00191D1712003C3C3C3C00003C
:1006300000000006011501260137014A015D017223
:100640000188019F01B801D201EE010B022A024B81
:10065000026E029302BA02E40210033F037003A485
:1006600003DC03170455049704DD0427057505C84A
:100670000520067D06E0064907B8072D08A9082DC4
:1006800009B9094D0AEA0A900B400CFA0CC00D9109
:100690000E6F0F5A1053115B1272139A14D4152057
:1006A000178018F519801B231DDE1EB420A622B565
:1006B00024E4263429A72B402E0031EA33003745A5
:1006C0003ABC3D68414C456B49C84D68524F578014
:1006D0005C006210111213151617181A1C1D1F2129
:1006E000232527292C2E3134373A3E4145494E5295
:1006F000575C62686E757B838B939CA5AFB9C4D041
:10070000DCE9F70301D5F08D14A1C881CFD9F1AF91
:10071000200014021302120215020702080204014B
:100720000C010601000000000200090F0000030494
:1007300001000C00000000000000000000000000AC
:10074000000000000408020110408040102040809A
:100750004080080204018040201002011080102017
:1007600040402004040404040304050202020204BD
:10077000030202020206060606060604040202023C
:10078000040400000000250028002B002E0031008A
:1007900000000000240027002A002D0030005A0528
:1007A000E30611241FBECFEFDAE0DEBFCDBF11E0BC
:1007B000A0E0B1E0EEEFF2E302C005900D92A437A5
:1007C000B107D9F726E0A4E7B1E001C01D92A63435
:1007D000B207E1F717E0C2EAD7E004C02297FE01B2
:1007E0000E946315CE39D107C9F70E94420D0C94BF
:1007F0007D1906CCFC01848D958D97FF02C080E0A9
:1008000090E008950A97F6CFFC01248D358D1216DD
:10081000130684F4A68DB78D828D938DA901415066
:100820005109558F448F821B930BA80FB91F8C91D0
:1008300090E008958FEF9FEF08950A97E5CFFC01B0
:10084000848D958D1816190664F4228D338D281B1E
:10085000390B068CF78DE02DE20FF31F808190E0BD
:1008600008958FEF9FEF08950A97E9CF08950895AF
:10087000CF93DF931F92CDB7DEB76983DC01ED9193
:10088000FC910288F389E02D41E050E0BE016F5FEA
:100890007F4F09950F90DF91CF9108950A97E8CF88
:1008A000FB01108280E00895FC018381806412C600
:1008B000CF93DF93CDB7DEB7A0970FB6F894DEBF26
:1008C0000FBECDBFFB0120812F5F2083BE016F5F74
:1008D0007F4F20E2FB0111922A95E9F729E0298355
:1008E00034E03A8353E05E832A8721E22B8741E09C
:1008F0004C874D874F8722E2288BF7E0FB8BE5E0A2
:10090000EC8B5E8B20E230E0388F2F8B498FFA8F93
:10091000EB8F5D8F3F8F2E8F48A3FC0122812B83AD
:1009200022E02D832DE1298B8381982F90689D8B68
:100930008C8F40E250E080E065D6A0960FB6F89428
:10094000DEBF0FBECDBFDF91CF910895FB012081A7
:100950002138B1F42381223299F4DC0112962C91D2
:10096000129730E0448155814217530749F421E042
:1009700058962C934DE150E068EE70E080E842C656
:1009800080E090E008950F931F93CF93DF93EC01E5
:10099000FB012A8130E0848195812817390709F00D
:1009A00051C091818081813A41F481E0913009F414
:1009B0004AC0933009F046C046C0813209F042C0B7
:1009C0009B3019F48281888F3BC09A3019F4828160
:1009D000898F36C09930B1F50681178183818330C4
:1009E00079F48AA19BA10817190761F5B80188A1BC
:1009F00099A138D68AA19BA190689BA38AA320C005
:100A00008230A1F48C8D9D8D892BE1F48A8D9B8D94
:100A100080179107BCF0801B910B2E8D3F8DB80184
:100A2000820F931F1FD61D8F0C8F0AC0813051F487
:100A30000032110539F460E270E0CE01849612D6DE
:100A400081E001C080E0DF91CF911F910F91089567
:100A5000CF93DF93EC0182E08C8321E02D83CE01E4
:100A600046969F838E83198618861D861C8648EEBF
:100A700053E060E070E04E875F87688B798B8BE195
:100A800091E09983888383E391E09B878A87288F0D
:100A9000298F1B8E1A8E1D8E1C8E19A218A21BA2C6
:100AA0001AA281EC8E8B80EC8F8BFBD3BE01DF9181
:100AB000CF91B0C384E791E0CBCFFC017183608319
:100AC00023E6228B6FE371E002960C94A116EF925D
:100AD000FF920F931F93CF93DF93EB0184E0CC0F32
:100AE000DD1F8A95E1F78A01E12CF12CC13084E009
:100AF000D80770F4CE010E948A18F80181938F0103
:100B0000FFEFEF1AFF0A219680E1E816F10471F772
:100B1000DF91CF911F910F91FF90EF900895613475
:100B2000710524F4D4DF80E190E0089580E090E046
:100B30000895CF92DF92EF92FF920F931F93CF937E
:100B4000DF931F92CDB7DEB76B017A0194E0CC0C36
:100B5000DD1C9A95E1F700E010E0F70161917F015B
:100B6000C60169830E948A186981681719F0C60155
:100B70000E9492180F5F1F4FFFEFCF1ADF0A00315C
:100B8000110559F70F90DF91CF911F910F91FF90B1
:100B9000EF90DF90CF9008956134710524F4C9DFA0
:100BA00080E190E0089580E090E008950296089535
:100BB000FC01118210821282148213821582168225
:100BC0000895FA01DB0111962C91119712966C9100
:100BD00031E530832061218362834D5F5F4F70E098
:100BE000FC01838194819BDF83E190E00895CF93A2
:100BF000DF93EC01FB0183E5808321E08B819C8105
:100C0000892B09F420E08D81882311F082E001C056
:100C100080E0282B2183128213821482888199819B
:100C20009C012F5F3F4F398328836FEF70E00E9454
:100C30001015858381E086831D8287E090E0DF9137
:100C4000CF910895EF92FF920F931F93CF93DF936D
:100C50008C01EA01FB01E180F280AB014D5F5F4F47
:100C60006F2D70E0FC018381948196DFBE01C80185
:100C7000BEDF87E58883E982FA8283E090E0DF9136
:100C8000CF911F910F91FF90EF900895FA01DB0132
:100C90002C91213541F150F4213471F02C3479F547
:100CA000FB012181DC0112962C9329C0233529F107
:100CB000D8F0273521F5C6CF21E0DB0111963C9114
:100CC000313009F020E0DC0116962C93DB018C9189
:100CD000808311968C9181838FEF828387E7838352
:100CE00084E090E008956DCF82E5808382E0818387
:100CF00089E1828383E090E00895BA0178CF80E0B3
:100D000090E0089521E0FC0125837483638381E0F2
:100D10000895CF93DF93EC018B819C81009729F09C
:100D2000C1D61C821B8281E08D8381E0DF91CF914F
:100D300008950895FC018681089587EC91E09093D1
:100D400093018093920180E290E090938F018093D1
:100D50008E01109291011092900187EE91E0D4D70C
:100D60006FE087EE91E0E9D761E087EE91E00E94C5
:100D7000FE0F80EC91E0DDCF0F931F93CF93DF93B5
:100D800000D01F92CDB7DEB79F938F9387E491E099
:100D90009F938F938E010F5F1F4F1F930F930E949E
:100DA000A816B80187EE91E0CDD20F900F900F906A
:100DB0000F900F900F900F900F900F90DF91CF91A9
:100DC0001F910F91089587EE91E075D780EC91E027
:100DD000EFCE6F927F928F929F92AF92BF92CF92FF
:100DE000DF92EF92FF920F931F93CF93DF93CDB7D4
:100DF000DEB7C054D1090FB6F894DEBF0FBECDBF29
:100E00009DD66B017C01009190011091910117FF1B
:100E100002C000E010E05E0181E2A80EB11C80E299
:100E2000F50111928A95E9F70115110509F474C0CD
:100E3000450184E791E0E8DCF40181934F01CF01A3
:100E40008A199B0980179107A4F389A18A3461F15B
:100E500040E050E060E070E087EE91E00E94F50F26
:100E60006CE471E087EE91E06DD269A187EE91E0CC
:100E70000E94810F0630110584F44E01F2E28F0EBC
:100E8000911CC4018A199B09801791076CF4F40125
:100E900081914F0190E070DFF4CFC8016DDF6FE406
:100EA00071E087EE91E04ED2CE0101964C0180E2D6
:100EB000F40111928A95E9F7A401B50180EC91E063
:100EC000E5DE882349F148E050E060E070E087EE1D
:100ED00091E00E94F50F65E571E087EE91E032D276
:100EE000698187EE91E00E94810F5E01F2E0AF0E12
:100EF000B11C3E0187E0680E711CF50181915F0114
:100F000090E03ADFA614B704C1F78091770140E280
:100F100050E0B4018064DED268E087EE91E00E9488
:100F20000510882341F087EE91E043D760E080EC24
:100F300091E0EFDE4AC064E087EE91E00E94051088
:100F4000882349F18091B8019091B901892B09F06A
:100F50003CC083E190E0A4D55C0160E070E0ADDDD1
:100F6000B092B901A092B80140E150E060E070E0B9
:100F700087EE91E00E94F50F68E571E087EE91E061
:100F8000E1D18091B8019091B90110DEBC0187EEEA
:100F900091E0D8D11AC060E887EE91E00E94051078
:100FA000811113C060E487EE91E00E940510811169
:100FB0000CC060E187EE91E00E940510811105C030
:100FC00060E287EE91E00E94051020910A013091C5
:100FD0000B018091BA019091BB01B9010E941015DB
:100FE000820F931FB9010E9410159093BB0180934B
:100FF000BA018091BC019091BD01A091BE01B09158
:10100000BF01B701A601481B590B6A0B7B0B8091EE
:101010000C0190910D01A0910E01B0910F01841768
:101020009507A607B70728F5C092BC01D092BD016D
:10103000E092BE01F092BF016091B8017091B901D8
:101040006115710539F080EC91E05CDE1092B90118
:101050001092B801012B69F480EC91E06BDE8111F4
:1010600021C007C08091770140E250E0B801806460
:1010700031D287EE91E0C7D7C05CDF4F0FB6F8944E
:10108000DEBF0FBECDBFDF91CF911F910F91FF90BB
:10109000EF90DF90CF90BF90AF909F908F907F9018
:1010A0006F9008958E010F5F1F4F80E2F80111923B
:1010B0008A95E9F7B80180EC91E099DD6C0188230D
:1010C000C1F248E150E060E070E087EE91E08DD73A
:1010D00060E671E087EE91E035D1698187EE91E0BD
:1010E00010D77E01F2E0EF0EF11CDD24C701801B5A
:1010F000910B8C159D050CF0B5CFF70181917F0107
:1011000090E03ADEF3CFEF92FF920F931F93CF93CD
:10111000DF937B01FC01C281D38100E010E02097C6
:1011200081F0E881F9810280F381E02DB701CE01E1
:10113000099597FD08C0080F191F0884D985C02D8F
:10114000EECFC80102C08FEF9FEFDF91CF911F91CB
:101150000F91FF90EF9008950F931F93CF93DF931C
:101160008B01FC01C281D381209771F0E881F98164
:101170000480F581E02DB801CE010995009731F486
:101180000884D985C02DF0CF80E090E0DF91CF9129
:101190001F910F9108950F931F93CF93DF938B01AE
:1011A000FC01C281D381209771F0E881F98106802A
:1011B000F781E02DB801CE010995080F111D0884B3
:1011C000D985C02DF0CFF8011082DF91CF911F910A
:1011D0000F9108950F931F93CF93DF938B01FC0121
:1011E000C281D381209771F0E881F9810190F0816B
:1011F000E02DB801CE010995811106C00884D9857A
:10120000C02DF0CF80E001C081E0DF91CF911F9130
:101210000F910895CF93DF93FC01DB012181149698
:101220008C91149790E0820F911D0897B4F5C281BC
:10123000D381209719F47383628308C088859985C8
:10124000009711F0EC01FACFB987A8878081129638
:101250008C931297818113968C93139780811596A6
:101260009C911597890F808380E014969C91149728
:10127000891788F41696CD91DC911797C80FD11D68
:101280009881C181D0E0C05FDE4F988391819F5FDC
:1012900091838F5FEACF81E001C080E0DF91CF9141
:1012A00008958091050681110CC01092010684E01A
:1012B00080930206109204061092030681E0809348
:1012C000050681E096E00895CF92DF92EF92FF92BB
:1012D0000F931F93CF93DF937C016A01EB0100E032
:1012E00010E00C151D0571F06991D701ED91FC918D
:1012F0000190F081E02DC7010995892B19F00F5F4E
:101300001F4FEFCFC801DF91CF911F910F91FF9039
:10131000EF90DF90CF9008956115710581F0DB01AA
:101320000D900020E9F7AD0141505109461B570BC4
:10133000DC01ED91FC910280F381E02D099480E0C5
:1013400090E00895E9CF615030F02091F100FC0168
:1013500020830196F8CF289884E680931506089597
:10136000409110065091110620910E0630910F0603
:1013700042175307B4F49091E8009570E1F390910F
:10138000E80092FD19C08093F100809110069091C1
:10139000110601968F739927892B19F48EEF80938C
:1013A000E800809110069091110601969093110625
:1013B0008093100681E0089580E00895CF92DF9237
:1013C000EF92FF920F931F93CF93DF931F92CDB7AE
:1013D000DEB7082F162FF42E862F880F8E5F998385
:1013E000BFDF83E0BDDFE02EC02E9981D92E8C2D8A
:1013F0008E19811788F4F601F7FE02C0849101C0AE
:101400008081AEDF082F80E0ABDF8023FFEFCF1AB3
:10141000DF0A8111ECCF01C081E00F90DF91CF9105
:101420001F910F91FF90EF90DF90CF9008958091E2
:10143000D70081608093D70080EA8093D80089B577
:10144000806189BD89B5826089BD09B400FEFDCF88
:1014500061E070E080E090E0A0D38091D8008F7CC4
:1014600080618093D8008091E000807F8093E000CD
:101470000895CF93DF931F92CDB7DEB7198211DFA6
:10148000BE016F5F7F4F3FDE89810F90DF91CF916B
:1014900008952FB7FC012083F89467706093E900EA
:1014A0000895CF93DF931F92CDB7DEB7682FCE019B
:1014B0000196EFDF9091E800892F807295FF04C0BC
:1014C0009091F20080E4891B99819FBF0F90DF917A
:1014D000CF9108956F927F928F929F92AF92BF9219
:1014E000CF92DF92EF92FF920F931F93CF93DF93F0
:1014F0001F92CDB7DEB7782E7B01C42EB52E80911A
:101500001406882369F0042F152F8AEFD82E872D13
:101510008072982E9AE3A92E872D8074882E0FC092
:101520008FEF9FEF54C0872DBCDF682E81110BC059
:10153000DA94B1F361E070E080E090E02ED3011521
:10154000110589F73AC0282F30E0021713070CF471
:10155000602E672DCE0101969CDF8091E80085FF0B
:1015600029C0262D30E0021B130B992039F06A9414
:101570008FEF6816B1F01092F100F9CFF701862DC8
:1015800077FE07C0815058F094919093F100319606
:10159000F9CF815020F091919093F100FACFE20EB3
:1015A000F31E8091E80085FF0FC00115110511F4AD
:1015B00081100AC089818FBFC2CF5D9884E6809375
:1015C00016068C2D9B2D03C0A092E800F3CF0F9040
:1015D000DF91CF911F910F91FF90EF90DF90CF900F
:1015E000BF90AF909F908F907F906F9008951092D2
:1015F000E900109211061092100690930F06809346
:101600000E060895CF92DF92FF920F931F93CF9310
:10161000DF9300D0CDB7DEB7F82E8A016B0101153C
:101620001105A9F0F601F7FE02C0849101C0808186
:1016300049835A8395DE01501109FFEFCF1ADF0A63
:1016400049815A818111EBCF8FEF9FEF01C0CA0111
:101650000F900F90DF91CF911F910F91FF90DF902E
:10166000CF900895BF92CF92DF92EF92FF920F93A7
:101670001F93CF93DF936C018B01EB013BEFB32EF4
:101680002097B9F07E01C134D1051CF020E4E22E90
:10169000F12C8091E80082FFFCCFC8018C1B9D0BD0
:1016A0006E2D8C0D9D1D4FDEB092E800CE19DF0926
:1016B000E7CFC801DF91CF911F910F91FF90EF907D
:1016C000DF90CF90BF9008951F920F920FB60F92A8
:1016D0001124DF92EF92FF920F931F932F933F936A
:1016E0004F935F936F937F938F939F93AF93BF932A
:1016F000EF93FF93CF93DF93CDB7DEB76C97DEBF49
:10170000CDBF1092E9008091E80083FFFCC068E043
:10171000CE01459618DE82EF8093E8003D8937FFC1
:1017200005C08091E80080FFFCCF03C08EEF80935E
:10173000E800832F807609F0D5C02E894F89D88C98
:1017400021110CC0303829F4809113068093F100E8
:1017500002C01092F1001092F100CEC0842F90E0F0
:101760009D29213049F43111C7C0019709F0C4C047
:10177000809113068D7F0AC0233059F43111BCC00B
:10178000019709F0B9C08091130682608093130617
:10179000B3C0253041F48091E80080FFFCCF406861
:1017A0004093E300A9C0263009F073C0EB8CFC8C99
:1017B00022E0D21227C080E090E019DF5ADE99E0E3
:1017C0008E010F5F1F4FF801292F11922A95E9F71B
:1017D0009983DA8291E09E8390EA988796E99987C7
:1017E0002091100630911106275F3F4F3C832B83D9
:1017F0008D83C701FCDE49E050E0B80180E002DFE4
:1018000038DE7AC0C701F3DE4CDDBE016B5E7F4F70
:10181000A3DC009719F00CF06FC072C081E0D816FD
:1018200049F1E3E0DE126CC08F89882331F1823008
:1018300029F440E86CE082E291E01AC0813029F49A
:1018400040E86AE087E191E013C0833009F058C0B6
:1018500028DD8E010F5F1F4FB8019DDCF80101905C
:101860000020E9F73197E01BF10B40E06E2FC80133
:10187000A5DD40C065E071E002C06FE271E0611576
:10188000710509F43DC0FB01449150E080E8BADEE7
:1018900033C02730A9F1283021F481E08093F10092
:1018A0002BC0293049F5337059F5E1E1F1E081E0D1
:1018B00021E036E39081992361F08093E900209341
:1018C000EB0091919093EC003093ED008F5F8730A7
:1018D00089F78EE78093EA001092EA008F8980935F
:1018E00014060AC08B8D9C8D82DEDBDCBE016B5E34
:1018F0007F4F70DC882321F08EEF8093E80003C0D7
:1019000081E28093EB006C960FB6F894DEBF0FBEB9
:10191000CDBFDF91CF91FF91EF91BF91AF919F919B
:101920008F917F916F915F914F913F912F911F9177
:101930000F91FF90EF90DF900F900FBE0F901F90D0
:1019400018958093E9008091F200882319F08AE3CA
:101950008093E80008951F920F920FB60F92112402
:101960002F933F934F935F936F937F938F939F93A7
:10197000AF93BF93CF93EF93FF93C091E10080911A
:10198000E100837F8093E1008093E100C3FF0FC0FB
:101990001092E90081E08093EB001092EC0082E36A
:1019A0008093ED001092140688E08093F000C2FF4F
:1019B00018C083E0C6DF80911606882339F0809135
:1019C0001606815080931606882389F180911506AA
:1019D000882339F08091150681508093150688235D
:1019E00041F1C4FF10C08091E2008E7E816080933F
:1019F000E2008091E1008F7E8093E10080911206E9
:101A00008E7E806111C0C0FF16C08091E2008E7E84
:101A100080618093E2008091E1008E7E8093E100FE
:101A2000809112068E7E81608093120604C05D9ABA
:101A3000CDCF289AD6CFFF91EF91CF91BF91AF91A3
:101A40009F918F917F916F915F914F913F912F91D6
:101A50000F900FBE0F901F901895109214061092C1
:101A6000130610921206E3DCE1EEF0E080818E7E38
:101A700080838DE08093E200559A209A08950E9419
:101A80009D160895C1D0FDDF8DE096E0E6DF55D9C3
:101A9000C0E0D0E09ED92097E9F30E940000FACF81
:101AA0000C9476150C940E161F920F920FB60F928F
:101AB00011242F933F938F939F93AF93BF93809164
:101AC000180690911906A0911A06B0911B06309144
:101AD000170623E0230F2D3720F40196A11DB11D19
:101AE00005C026E8230F0296A11DB11D20931706FD
:101AF0008093180690931906A0931A06B0931B06BC
:101B000080911C0690911D06A0911E06B0911F06A3
:101B10000196A11DB11D80931C0690931D06A093F4
:101B20001E06B0931F06BF91AF919F918F913F9179
:101B30002F910F900FBE0F901F9018952FB7F8940C
:101B4000609118067091190680911A0690911B06F3
:101B50002FBF08953FB7F89480911C0690911D0601
:101B6000A0911E06B0911F0626B5A89B05C02F3F69
:101B700019F00196A11DB11D3FBF6627782F892F4F
:101B80009A2F620F711D811D911D42E0660F771F14
:101B9000881F991F4A95D1F708958F929F92AF920F
:101BA000BF92CF92DF92EF92FF926B017C01D2DF66
:101BB0004B015C01C114D104E104F104E1F07AD0DD
:101BC000C9DF681979098A099B09683E7340810554
:101BD000910580F321E0C21AD108E108F10888EEEE
:101BE000880E83E0981EA11CB11CC114D104E1042D
:101BF000F10431F7DFCFFF90EF90DF90CF90BF90EF
:101C0000AF909F908F900895789484B5826084BD42
:101C100084B5816084BD85B5826085BD85B58160F0
:101C200085BDEEE6F0E0808181608083E1E8F0E050
:101C30001082808182608083808181608083E0E87F
:101C4000F0E0808181608083E1E9F0E08081826062
:101C50008083808181608083E0E9F0E08081816021
:101C60008083E1ECF0E08081846080838081826009
:101C70008083808181608083E3ECF0E080818160FB
:101C80008083E0ECF0E0808182608083E2ECF0E031
:101C9000808181608083EAE7F0E0808184608083D6
:101CA0008081826080838081816080838081806880
:101CB000808308950895CF93DF93EC0187E691E048
:101CC000998388831B821A82CE0119D48FE691E012
:101CD000998388838CE38E8380E1898718861F82AD
:101CE0001E861F86188A198A1A8AFE01EC5EFB4F2F
:101CF00011821082329611821082C85EDB4F81E021
:101D00008883DF91CF910895CF93DF93EC012AD49C
:101D1000E8D48078803839F4B5D42FEF4FEF6FEFE7
:101D2000CE01BCD4FFCF249665E0CE0134D26DE065
:101D3000CE0131D2DF91CF9187C1FC01668370E083
:101D400088EE93E06DD6618708956038710518F5C7
:101D50004034510500F5E42FE695E695E695F0E070
:101D600047705527F695FE2FEE27F795E795E60F76
:101D7000F71FE80FF91F81E090E0042E01C0880FE3
:101D80000A94EAF7222319F09489982B03C08095CE
:101D900094899823948B08954496B62FB111BFEF80
:101DA000FC010024B193B193B193B1930394D1F7A3
:101DB000089560E0F1CF2F923F924F925F926F9221
:101DC0007F928F929F92AF92BF92CF92DF92EF92CB
:101DD000FF920F931F93CF93DF93CDB7DEB7289772
:101DE0000FB6F894DEBF0FBECDBF9E838D832A0150
:101DF000603871050CF06CC0403451050CF068C0BF
:101E0000CB01A5E0CA9E800D911D1124181619065C
:101E10000CF05EC0EC2DF0E0FC83EB83CA01F8E02F
:101E2000CF9E800D911D1124181619060CF050C07C
:101E3000A5E02A9FC00111245B0118861F828D5CDA
:101E40009E4F9A838983BF81B53041F0E981FA8141
:101E50008F819885E80FF91F149101C010E03201BD
:101E600028E0D22E10FF02C0F02E01C0FE2CF1108F
:101E70000BC0E01209C01695DA94AB81BC816A0EE2
:101E80007B1ED110EFCF18C01501822D8A198C1539
:101E900090F74301882D86198C1550F42F2DA4013D
:101EA000B1018D819E8151DFBFEF8B1A9B0AF2CF6A
:101EB000EFEF2E1A3E0AE9CF8F8198850196988719
:101EC0008F83AB81BC81AA0EBB1E069709F0BBCFE6
:101ED00028960FB6F894DEBF0FBECDBFDF91CF912D
:101EE0001F910F91FF90EF90DF90CF90BF90AF9038
:101EF0009F908F907F906F905F904F903F902F902A
:101F000008958F929F92AF92BF92CF92EF920F93CC
:101F1000CF93DF93EC01262F6A3099F4FC01E85E41
:101F2000FB4F208132978081918138E0239F800D83
:101F3000911D112491838083CC5EDB4F198218821E
:101F40004AC06D3009F447C0FC01EA5EFB4F408196
:101F500051815C018CEEA81A8BEFB80AF501608103
:101F600071814E01F8EE8F1AFBEF9F0AF401C080D9
:101F7000E12C01E0CE011FDFF4012081422F50E06F
:101F8000F50180819181F6E02F9F800D911D112434
:101F9000F50191838083359620812223E1F06AEF59
:101FA00064039001659F300D112420583F4F28177E
:101FB00039078CF4E881F9810190F081E02D6AE025
:101FC000CE01DF91CF910F91EF90CF90BF90AF9066
:101FD0009F908F900994DF91CF910F91EF90CF90C8
:101FE000BF90AF909F908F900895FC01EC5EFB4FE7
:101FF000718360833296518340830895875E9B4F3F
:10200000FC0160830895449626C3CF93DF931F920B
:10201000CDB7DEB7698365D36981982F962381E0B8
:10202000961380E00F90DF91CF910895E4E6F0E001
:102030008081877F8083E5E6F0E08081877F8083F1
:1020400081E080932006089510922D0682E090E0B2
:102050000E948A188111EACF0895CF92DF92EF9201
:10206000FF921F93CF93DF9390912E06891708F06C
:1020700063C067FD61C0E82FF0E0ED5FF84F149199
:10208000E62FF0E0603330F4ED52F94FE491CE2FBB
:10209000D0E006C0EE0FFF1FED52FA4FC591D4916C
:1020A0006E01E12CF12C60E074E284EF90E0A70176
:1020B0009601EBD42150310941095109211531050F
:1020C00081E04807510568F060E970ED83E090E039
:1020D000A7019601DAD4215031094109510993E051
:1020E00001C091E01130C9F0133031F580919100B9
:1020F000887F892B809391003093990020939800DA
:10210000D0932C06C0932B0681E080932A06809101
:1021100071008260809371000FC080918100887F80
:10212000892B8093810030938900209388008091CF
:102130006F00826080936F00DF91CF911F91FF90BD
:10214000EF90DF90CF900895E82FF0E0ED5FF84F2B
:10215000E491E13019F0E33069F0089580916F0067
:102160008D7F80936F0020913806E0913906F091C1
:102170003A0608C010922A0620913106E0913206F4
:10218000F0913306808190E030E0209530958223F5
:10219000932380830895CF93DF93C62F80912E06DB
:1021A000823009F468C0E82FF0E0ED5FF84FD49179
:1021B000A82FB0E0A15DB94F6C938F5F80932E067E
:1021C00061E08C2F79D3D13081F1D33009F053C045
:1021D00010929000109291008091910088608093FD
:1021E0009100809191008160809391006C2F70E04C
:1021F000FB01ED59F84F249130E0220F331F2E5789
:10220000384FF9018591949190933306809332066B
:10221000FB01EC5BF84F6491609331066CE380E066
:102220001CDF80E0DF91CF918FCF10928000109261
:10223000810080918100886080938100809181007D
:102240008160809381006C2F70E0FB01ED59F84FA5
:10225000249130E0220F331F2E57384FF90185911A
:10226000949190933A0680933906FB01EC5BF84F0A
:10227000649160933806DF91CF910895E091210633
:10228000F0912206BF016F5F7F4F7093220660932B
:102290002106A4919A2F907F8A2F8F70903811F485
:1022A00053DFECCF903959F4AF014E5F5F4F50933D
:1022B000220640932106FB016491CFDEDFCF903EE2
:1022C00049F48091230690912406909322068093EE
:1022D0002106D4CF903F19F410922D06089597FD52
:1022E000CDCFAF014E5F5F4F509322064093210642
:1022F000FB016491262F30E03A2BA0912B06B09180
:102300002C06E5D36C507E4F8F4F9F4F28EE33E065
:1023100040E050E098D32093250630932606409362
:102320002706509328068091250690912606A091B5
:102330002706B0912806892B8A2B8B2B61F481E02C
:1023400090E0A0E0B0E08093250690932606A0934D
:102350002706B0932806089580912A06882349F01D
:1023600090913106E0913206F09133068081892701
:10237000808380912D06882321F1809125069091FC
:102380002606A0912706B0912806892B8A2B8B2B35
:10239000C1F08091250690912606A0912706B09164
:1023A00028060197A109B109809325069093260676
:1023B000A0932706B0932806892B8A2B8B2B09F430
:1023C0005DCF08951F920F920FB60F9211242F9395
:1023D0003F938F939F93AF93BF93EF93FF9380911E
:1023E0002906882309F44BC0809134069091350664
:1023F000A0913606B0913706892B8A2B8B2B51F191
:1024000090913806E0913906F0913A06808189274B
:1024100080838091340690913506A0913606B09164
:102420003706181619061A061B0694F5809134060D
:1024300090913506A0913606B09137060197A10913
:10244000B1098093340690933506A0933606B09375
:1024500037061EC01092290680916F008D7F8093F1
:102460006F0020913806E0913906F0913A0680819C
:1024700090E030E0209530958223932308C090911E
:102480003806E0913906F0913A06808189278083E9
:10249000FF91EF91BF91AF919F918F913F912F91BC
:1024A0000F900FBE0F901F9018951F920F920FB6AE
:1024B0000F9211242F933F934F935F936F937F93CA
:1024C0008F939F93AF93BF93EF93FF9345DFFF915C
:1024D000EF91BF91AF919F918F917F916F915F919C
:1024E0004F913F912F910F900FBE0F901F90189515
:1024F0008EBD00000DB407FEFDCF8EB50895089582
:10250000E0913D06F0913E06808190913B06892B3B
:102510008083E0913F06F0914006908180913C06D7
:102520008095892380830895E0913F06F0914006CD
:10253000808190913C06892B8083E0913D06F0914B
:102540003E06908180913B06809589238083E091AF
:102550003F06F0914006908180913C06809589234A
:1025600080830895CF93DF9315D2C2E1D7E0BE01F7
:10257000FE01849122966F5F7F4FFB016491882357
:1025800011F09AD1F4CF61E086E0CFD161E070E044
:1025900080E090E002DB60E086E0C7D16AE070E0B6
:1025A00080E090E0FADA61E086E0BFD1EFE6F7E0A4
:1025B000E491F0E0EE0FFF1FEE57F84F85919491F4
:1025C0009093400680933F06E0E5F7E0E491E093C6
:1025D0003C06E7E6F7E0E491F0E0EE0FFF1FEE5770
:1025E000F84F8591949190933E0680933D06E8E4E0
:1025F000F7E0E491E0933B068CB58C7F8CBD8DB504
:1026000081608DBD91DFC5E0D7E0F7E0C231DF0723
:1026100029F0FE0184916CDF2196F7CF71DF809164
:102620006400816080936400809164008260809384
:1026300064008091640080688093640080916400ED
:102640008064809364008091650081608093650060
:10265000DF91CF910895FC0120812EBD21E030E073
:10266000FC01E20FF31F40810DB407FEFDCF4EBD0C
:102670002F5F3F4F2115F4E03F0791F70DB407FEA0
:10268000FDCF0895CF93DF93C0E0D4E080E030DF4A
:1026900021972097D9F7DF91CF9108950F931F933A
:1026A000CF93DF9300D0CDB7DEB70FEF10E0C801B6
:1026B000861B9109BC018AE02A8349832DD0498178
:1026C000B801641B71098BE027D02A81B801621B15
:1026D000710989E00F900F90DF91CF911F910F91B9
:1026E0001BC08FB14CB123B150E040955095407460
:1026F000552733E0559547953A95E1F730E0209519
:102700003095207133273595279535952795242BBE
:102710008095807F822B08951F93CF93DF93182F8E
:10272000EB0161E0C9D0209711F460E004C0CF3F15
:10273000D10531F461E0812FDF91CF911F91F5C078
:10274000E12FF0E0EB5DF84F449150E0FA01319752
:10275000EF30F10508F06BC0EA5AFF4FB2C184B503
:10276000806884BDC7BD68C084B5806284BDC8BDB3
:1027700063C080918000806880938000D09389003E
:10278000C093880059C0809180008062809380004F
:10279000D0938B00C0938A004FC0809180008860E6
:1027A00080938000D0938D00C0938C0045C08091B1
:1027B0009000806880939000D0939900C093980017
:1027C0003BC080919000806280939000D0939B00EA
:1027D000C0939A0031C080919000886080939000EF
:1027E000D0939D00C0939C0027C08091C00080685A
:1027F0008093C0008091C0008F7B8093C000C09305
:10280000CF001AC08091C00080628093C000C09346
:10281000D00012C08091C20088608093C200809175
:10282000C2008B7F8093C200C093D20005C0C03825
:10283000D1050CF07FCF79CFDF91CF911F91089513
:1028400090E0FC013197EF30F105A8F5EB59FF4F0F
:1028500038C1809180008F7703C0809180008F7D88
:1028600080938000089580918000877FF9CF84B5A0
:102870008F7702C084B58F7D84BD089580919000CC
:102880008F7707C0809190008F7D03C0809190006A
:10289000877F8093900008958091C0008F7703C058
:1028A0008091C0008F7D8093C00008958091C20008
:1028B000877F8093C2000895CF93DF9390E0FC015F
:1028C000EC5BF84F2491FC01ED59F84F849188237B
:1028D00049F190E0880F991FFC01E057F84FA5914E
:1028E000B4918E57984FFC01C591D4919FB7611157
:1028F00008C0F8948C91209582238C938881822340
:102900000AC0623051F4F8948C91322F30958323B1
:102910008C938881822B888304C0F8948C91822BBD
:102920008C939FBFDF91CF9108950F931F93CF9307
:10293000DF931F92CDB7DEB7282F30E0F901EB5DB2
:10294000F84F8491F901EC5BF84F1491F901ED59BE
:10295000F84F04910023C1F0882319F0698370DFD8
:102960006981E02FF0E0EE0FFF1FEE57F84FA591C1
:10297000B4919FB7F8948C91611103C01095812395
:1029800001C0812B8C939FBF0F90DF91CF911F913E
:102990000F910895CF93CFB7F8948091410681119C
:1029A00023C0E4E7F7E08491E5E5F7E09491E82FB0
:1029B000F0E0EE0FFF1FE057F84FA591B4918C9116
:1029C000892319F461E081E1B0DF61E081E174DF26
:1029D0008CB580618CBD8CB580648CBD61E08FE06E
:1029E0006BDF61E080E168DF809141068F5F80935B
:1029F0004106CFBFCF910895AA1BBB1B51E107C071
:102A0000AA1FBB1FA617B70710F0A61BB70B881F7E
:102A1000991F5A95A9F780959095BC01CD0108950D
:102A200097FB072E16F4009406D077FD08D0E4DF5C
:102A300007FC05D03EF4909581959F4F08957095C1
:102A400061957F4F0895A1E21A2EAA1BBB1BFD01C1
:102A50000DC0AA1FBB1FEE1FFF1FA217B307E4077D
:102A6000F50720F0A21BB30BE40BF50B661F771FD5
:102A7000881F991F1A9469F76095709580959095B5
:102A80009B01AC01BD01CF010895052E97FB16F403
:102A900000940FD057FD05D0D6DF07FC02D046F4D6
:102AA00008C050954095309521953F4F4F4F5F4F4F
:102AB000089590958095709561957F4F8F4F9F4FAA
:102AC0000895EE0FFF1F0590F491E02D0994A29F49
:102AD000B001B39FC001A39F700D811D1124911DF2
:102AE000B29F700D811D1124911D0895CF93DF9326
:102AF0008230910510F482E090E0E0914406F0917C
:102B0000450620E030E0A0E0B0E0309739F14081A8
:102B1000518148175907B8F04817590771F4828155
:102B20009381109729F013969C938E9312972CC043
:102B3000909345068093440627C02115310531F056
:102B40004217530718F0A901DB0101C0EF019A01F8
:102B5000BD01DF010280F381E02DD7CF21153105C2
:102B6000F9F0281B390B2430310580F48A819B81D0
:102B70006115710521F0FB019383828304C090935A
:102B8000450680934406FE01329644C0FE01E20FE2
:102B9000F31F8193919322503109398328833AC0DE
:102BA0002091420630914306232B41F420910201EB
:102BB0003091030130934306209342062091000197
:102BC000309101012115310541F42DB73EB74091F7
:102BD000040150910501241B350BE0914206F09150
:102BE0004306E217F307A0F42E1B3F0B2817390703
:102BF00078F0AC014E5F5F4F2417350748F04E0F59
:102C00005F1F50934306409342068193919302C005
:102C1000E0E0F0E0CF01DF91CF910895CF93DF9313
:102C2000009709F487C0FC01329713821282C09189
:102C30004406D0914506209781F420813181280FE8
:102C4000391F80914206909143068217930779F5C8
:102C5000F0934306E09342066DC0DE0120E030E0D1
:102C6000AE17BF0750F412964D915C9113979D01DA
:102C70004115510509F1DA01F3CFB383A2834081F5
:102C80005181840F951F8A179B0771F48D919C9138
:102C90001197840F951F02969183808312968D91D0
:102CA0009C911397938382832115310529F4F09326
:102CB0004506E09344063EC0D9011396FC93EE937B
:102CC00012974D915D91A40FB51FEA17FB0779F498
:102CD00080819181840F951F0296D90111969C9352
:102CE0008E938281938113969C938E931297E0E04A
:102CF000F0E08A819B81009719F0FE01EC01F9CF89
:102D0000CE01029628813981820F931F20914206BD
:102D1000309143062817390769F4309729F4109247
:102D200045061092440602C013821282D0934306D5
:102D3000C0934206DF91CF91089581E090E0F8942E
:102D4000DCC2FB01DC0101900D920020E1F7089547
:102D5000AEE0B0E0EDEAF6E1A7C20D891E8986E09B
:102D60008C831A8309838FEF9FE79E838D83AE0147
:102D7000475E5F4F6F89788DCE01019608D0EF8155
:102D8000F885E00FF11F10822E96E4E0A9C2ACE0B6
:102D9000B0E0ECECF6E17AC27C016B018A01FC0147
:102DA00017821682838181FFB0C1CE0101964C014A
:102DB000F7019381F60193FD859193FF81916F0156
:102DC000882309F49EC1853239F493FD859193FFE0
:102DD00081916F01853221F4B70190E0C7D1E8CF2E
:102DE000512C312C20E02032A0F48B3269F030F4E9
:102DF000803259F0833269F420612CC08D3239F071
:102E0000803339F4216026C02260246023C028600A
:102E100021C027FD27C030ED380F3A3078F426FF67
:102E200006C0FAE05F9E300D1124532E13C08AE0D5
:102E3000389E300D1124332E20620CC08E3221F4C6
:102E400026FD5FC1206406C08C3611F4206802C0E4
:102E5000883641F4F60193FD859193FF81916F01CE
:102E60008111C1CF982F9F7D9554933028F40C5F2A
:102E70001F4FFFE3F9830DC0833631F0833771F0C4
:102E8000833509F057C021C0F801808189830E5F26
:102E90001F4F44244394512C540114C03801F2E0D4
:102EA0006F0E711CF801A080B18026FF03C0652D54
:102EB00070E002C06FEF7FEFC5012C874CD12C0171
:102EC00083012C852F77222E16C03801F2E06F0E79
:102ED000711CF801A080B18026FF03C0652D70E051
:102EE00002C06FEF7FEFC5012C872AD12C012C8502
:102EF0002068222E830123FC19C0832D90E0481600
:102F00005906A0F4B70180E290E030D13A94F5CFB1
:102F1000F50127FC859127FE81915F01B70190E0C3
:102F200025D131103A94F1E04F1A5108411451045F
:102F300079F7DEC0843611F0893631F5F80127FFC4
:102F400007C060817181828193810C5F1F4F08C02F
:102F500060817181882777FD8095982F0E5F1F4FC4
:102F60002F76B22E97FF09C0909580957095619548
:102F70007F4F8F4F9F4F2068B22E2AE030E0A40190
:102F800027D1A82EA81843C0853729F42F7EB22E4A
:102F90002AE030E025C0F22FF97FBF2E8F36C1F036
:102FA00018F4883579F0ADC0803719F0883721F0F2
:102FB000A8C02F2F2061B22EB4FE0DC08B2D8460CF
:102FC000B82E09C024FF0AC09F2F9660B92E06C0F4
:102FD00028E030E005C020E130E002C020E132E02E
:102FE000F801B7FE07C060817181828193810C5F17
:102FF0001F4F06C06081718180E090E00E5F1F4F1F
:10300000A401E6D0A82EA818FB2DFF77BF2EB6FE90
:103010000BC02B2D2E7FA51450F4B4FE0AC0B2FCB9
:1030200008C02B2D2E7E05C07A2C2B2D03C07A2CA8
:1030300001C0752C24FF0DC0FE01EA0DF11D808139
:10304000803311F4297E09C022FF06C07394739463
:1030500004C0822F867809F0739423FD12C020FFEC
:1030600006C05A2C731418F4530C5718732C73148D
:1030700060F4B70180E290E02C8778D073942C85BF
:10308000F6CF731410F4371801C0312C24FF11C08F
:10309000B70180E390E02C8769D02C8522FF16C011
:1030A00021FF03C088E590E002C088E790E0B70107
:1030B0000CC0822F867851F021FD02C080E201C051
:1030C0008BE227FD8DE2B70190E050D0A51430F4DB
:1030D000B70180E390E04AD05A94F8CFAA94F40163
:1030E000EA0DF11D8081B70190E040D0A110F6CF2C
:1030F000332009F45DCEB70180E290E037D03A94F6
:10310000F7CFF7018681978102C08FEF9FEF2C9652
:10311000E2E1D8C0F999FECF92BD81BDF89A992716
:1031200080B50895262FF999FECF1FBA92BD81BDB3
:1031300020BD0FB6F894FA9AF99A0FBE0196089539
:10314000FC010590615070400110D8F78095909572
:103150008E0F9F1F0895FC01615070400190011077
:10316000D8F7809590958E0F9F1F08950F931F930A
:10317000CF93DF93182F092FEB018B8181FD03C0C3
:103180008FEF9FEF20C082FF10C04E815F812C81A6
:103190003D81421753077CF4E881F9819F012F5F3D
:1031A0003F4F39832883108306C0E885F985812F36
:1031B0000995892B29F72E813F812F5F3F4F3F8350
:1031C0002E83812F902FDF91CF911F910F91089522
:1031D000FA01AA27283051F1203181F1E8946F9348
:1031E0006E7F6E5F7F4F8F4F9F4FAF4FB1E03ED0EE
:1031F000B4E03CD0670F781F891F9A1FA11D680F8C
:10320000791F8A1F911DA11D6A0F711D811D911DBE
:10321000A11D20D009F468943F912AE0269F112433
:103220003019305D3193DEF6CF010895462F477097
:10323000405D4193B3E00FD0C9F7F6CF462F4F70F2
:10324000405D4A3318F0495D31FD4052419302D050
:10325000A9F7EACFB4E0A6959795879577956795F6
:10326000BA95C9F700976105710508959B01AC01F6
:103270000A2E06945795479537952795BA95C9F71D
:10328000620F731F841F951FA01D08952F923F92F8
:103290004F925F926F927F928F929F92AF92BF9266
:1032A000CF92DF92EF92FF920F931F93CF93DF9312
:1032B000CDB7DEB7CA1BDB0B0FB6F894DEBF0FBE6F
:1032C000CDBF09942A88398848885F846E847D84BC
:1032D0008C849B84AA84B984C884DF80EE80FD80BE
:1032E0000C811B81AA81B981CE0FD11D0FB6F89434
:0E32F000DEBF0FBECDBFED010895F894FFCFF5
:1032FE00000046062000010000000100E803000067
:10330E0000C1808100000000000000C3045804A624
:10331E00045004FA0304041F04360438045404F65B
:10332E00FF00004E04640902041D04340437044BEC
:10333E00696E6770656E0025303278003D3E006222
:10334E0079746573003C3D004C6F616465642000C8
:10335E003C2D00000000003F0D64090000000081BC
:04336E000F640900DF
:00000001FF
